:100000000C94BE010C94DB010C94DB010C94DB011D
:100010000C94DB010C9415020C94DB010C94DB01B5
:100020000C94DB010C94DB010C94DB010C94DB01E0
:100030000C94DB010C94DB010C94DB010C94DB01D0
:100040000C94E0170C94DB010C94DB010C94DB01A5
:100050000C9419170C94D7160C94DB010C94DB014B
:100060000C94DB010C94DB010C94DB010C94DB01A0
:100070000C94DB010C94DB010C94DB015072657372
:1000800073206120627574746F6E20746F207374B6
:1000900061727420616761696E0047414D45204F70
:1000A0005645523A20506C6179657220322057696A
:1000B0006E73202859656C6C6F77290047414D4558
:1000C000204F5645523A20506C617965722031209C
:1000D00057696E7320284F72616E67652900506CF6
:1000E0006179657220323A2025642E25642053659B
:1000F000636F6E6473206C65667400506C61796523
:100100007220313A2025642E2564205365636F6E7A
:100110006473206C65667400506C6179657220327E
:100120003A202564205365636F6E6473206C6566A6
:100130007400506C6179657220313A202564205337
:1001400065636F6E6473206C656674004C617374D4
:1001500020526F6C6C3A20256400446963652073FB
:1001600074617475733A204E6F7420726F6C6C6991
:100170006E67004C61737420526F6C6C3A2025647A
:100180000044696365207374617475733A20526F1B
:100190006C6C696E672020202000486172643A20F0
:1001A0003435207365636F6E64732074696D6520E8
:1001B0006C696D69742020004D656469756D3A2025
:1001C0003930207365636F6E64732074696D6520C8
:1001D0006C696D697400456173793A204E6F2074C3
:1001E000696D65206C696D697420202020202020B5
:1001F000202020002020202020202020202020201F
:1002000020202020202020202020202020202020EE
:100210002000536F756E64204F4E00536F756E64EF
:10022000204F464600536F756E64204F4E00536F4B
:10023000756E64204F464600426F617264204368C9
:100240006F73656E3A2054776F00426F617264205D
:1002500043686F73656E3A204F6E65004861726443
:100260003A203435207365636F6E64732074696D52
:1002700065206C696D69742020004D656469756D39
:100280003A203930207365636F6E64732074696D32
:1002900065206C696D697400456173793A204E6F11
:1002A0002074696D65206C696D69742020202020A0
:1002B000202020202000202020202020202020205E
:1002C000202020202020202020202020202020202E
:1002D000202020004F6E6520506C617965720045CA
:1002E0006173793A204E6F2074696D65206C696D79
:1002F0006974202020202020202020200054776FA7
:1003000020506C6179657200536F756E64204F4E9A
:10031000004F6E6520506C6179657200426F6172AA
:10032000642043686F73656E3A204F6E65004353D7
:100330005345323031302F37323031204132206254
:10034000792041646E61616E2042756B7368202D67
:1003500020343734333535363800536E616B65736E
:1003600020616E64204C616464657273001B5B32B3
:100370004A001B5B25643B256448000011241FBE16
:10038000CFEFD8E0DEBFCDBF13E0A0E0B1E0EAE4FC
:10039000F9E302C005900D92A233B107D9F725E029
:1003A000A2E3B3E001C01D92AA33B207E1F70E94B5
:1003B000FC150C94A31C0C940000E8E6F0E080818E
:1003C000826080838BB382608BBBECE6F0E080813F
:1003D0008F60808310923203089580913203181643
:1003E00014F5809133036FB7F89491E009C0F901D7
:1003F000ED5CFC4F4081F901EE5CFC4F40839F5F58
:10040000292F30E040913203042E000C550B2417A5
:1004100035076CF390913203915090933203662329
:100420001CF4789408958FEF08951F920F920FB6E1
:100430000F9211242F933F934F938F939F93EF939A
:10044000FF9343B14F7080E026C090913203943007
:100450000CF5242F30E0082E02C0359527950A941C
:10046000E2F720FF17C02091370330E0082E02C0CA
:10047000359527950A94E2F720FD0CC0E0913203F0
:1004800091E09E0F909332030E2E000CFF0BED5C5B
:10049000FC4F80838F5F8430C0F240933703FF911D
:1004A000EF919F918F914F913F912F910F900FBEA0
:1004B0000F901F9018950F931F93CF93DF93CDB795
:1004C000DEB728970FB6F894DEBF0FBECDBF0E94EF
:1004D000110B80E090E008C0E1E0F0E0EC0FFD1FC0
:1004E000E80FF91F1082019688309105ACF308E0FF
:1004F00010E008C0BE016F5F7F4F802F0E94F40A9A
:100500000F5F1F4F00311105ACF380E090E001C098
:10051000019680319105E4F328960FB6F894DEBF7A
:100520000FBECDBFDF91CF911F910F9108951F9303
:10053000CF93DF93CDB7DEB728970FB6F894DEBF21
:100540000FBECDBF0E94110B10E029C0E12FF0E0DB
:10055000EE5DFE4F908190FF02C02FE001C020EFC2
:1005600087E013C0992344F4E1E0F0E0EC0FFD1FB5
:10057000E80FF11D208307C0E1E0F0E0EC0FFD1F64
:10058000E80FF11D1082990F81508111EBCF198274
:10059000BE016F5F7F4F812F0E94F40A1F5F1031F1
:1005A000A8F228960FB6F894DEBF0FBECDBFDF913C
:1005B000CF911F910895CF93DF93D82FC62F842F0B
:1005C0000E942D038038F1F058F48032F9F018F4CD
:1005D0008031E1F011C0803489F0803589F00CC0A1
:1005E000803C91F028F4803969F0803A59F004C0D9
:1005F000803D51F0803E41F040E009C04CE307C02F
:100600004FED05C04FE003C040EF01C045E367E098
:100610006D1B8C2F0E94D50ADF91CF91089581E048
:1006200090E09093CF038093CE0308951092CF0370
:100630001092CE030895883060F4603160F490E148
:10064000899FF0011124EA5BFC4FE60FF11D8081C8
:10065000089580E0089580E00895807F08950F93C5
:100660001F93CF93DF9390E09093D1038093D003B7
:100670000E945B0200E010E05BC08091D00390918B
:10068000D1030097D9F4EFE0F0E0EC1BFD0BEE0F87
:10069000FF1FEE0FFF1FEE0FFF1FEE54FD4FE00F89
:1006A000F11F2081F801E295F295F07FFE27E07FAF
:1006B000FE27EA5BFC4FEC0FFD1F20830197D9F466
:1006C000EFE0F0E0EC1BFD0BEE0FFF1FEE0FFF1F46
:1006D000EE0FFF1FEE5CFD4FE00FF11F8081F80170
:1006E000E295F295F07FFE27E07FFE27EA5BFC4F64
:1006F000EC0FFD1F8083F801E295F295F07FFE2755
:10070000E07FFE27EA5BFC4FEC0FFD1F80810E941B
:100710002D03482F6C2F802F0E94DB02219602C0F0
:10072000C0E0D0E0C031D1050CF4A7CF0F5F1F4F60
:1007300008301105ACF3DF91CF911F910F9108950F
:100740000F931F93CF93DF938FEF90E090938B00E5
:1007500080938A0083EA809380008AE180938100FD
:1007600010928900109288000E945B021092CD03C3
:100770001092D4031092C6031092D8031092C803AB
:100780001092C70381E090E09093CA038093C9035D
:100790001092D50300E010E05BC08091D0039091EF
:1007A000D1030097D9F4EFE0F0E0EC1BFD0BEE0F66
:1007B000FF1FEE0FFF1FEE0FFF1FEE54FD4FE00F68
:1007C000F11F2081F801E295F295F07FFE27E07F8E
:1007D000FE27EA5BFC4FEC0FFD1F20830197D9F445
:1007E000EFE0F0E0EC1BFD0BEE0FFF1FEE0FFF1F25
:1007F000EE0FFF1FEE5CFD4FE00FF11F8081F8014F
:10080000E295F295F07FFE27E07FFE27EA5BFC4F42
:10081000EC0FFD1F8083F801E295F295F07FFE2733
:10082000E07FFE27EA5BFC4FEC0FFD1F80810E94FA
:100830002D03482F6C2F802F0E94DB02219602C0CF
:10084000C0E0D0E0C031D1050CF4A7CF0F5F1F4F3F
:1008500008301105ACF340E46091D4038091CD03DE
:100860000E94DB02DF91CF911F910F9108958F704D
:100870000895CF93DF938091380381111FC0809139
:10088000CE039091CF03019739F440E56091D803EE
:100890008091C6030E94DB028091CD03082E000CDC
:1008A000990B9093D3038093D2038091D403082EA5
:1008B000000C990B90934503809344038091380377
:1008C0008130C9F440E46091D4038091CD030E944B
:1008D000DB028091C603082E000C990B9093D30382
:1008E0008093D2038091D803082E000C990B90932B
:1008F0004503809344038091D503882371F0D09100
:100900004403C091D2036D2F8C2F0E941B03482FEC
:100910006D2F8C2F0E94DB020EC0E0913803F0E0B7
:10092000EE0FFF1FE050FF4F408160914403809124
:10093000D2030E94DB029091D50381E0891B809352
:10094000D503DF91CF910895CF93C0913803C111A2
:1009500013C08091CD03082E000C990B9093D30304
:100960008093D2038091D403082E000C990B9093AE
:1009700045038093440314C0C13091F48091C603B1
:10098000082E000C990B9093D3038093D20380918F
:10099000D803082E000C990B9093450380934403D1
:1009A000609144038091D2030E941B030E942D0397
:1009B0008032A9F48C2F90E001969093CC03809321
:1009C000CB03109238031092D3031092D2031092EB
:1009D0004503109244030E949D0D81E001C080E018
:1009E000CF9108958091400390914103892B01F5A7
:1009F000E8E8F0E08FE697E1918380832FEF80E7CE
:100A000092E0215080409040E1F700C000008FE963
:100A10009FE0918380832FEF81EE94E0215080400E
:100A20009040E1F700C0000087E893E19183808364
:100A3000089581E090E090934103809340031092E9
:100A4000890010928800089510924103109240038B
:100A500008958091C7039091C80321E08227909365
:100A6000C8038093C70308950F931F93CF93DF9319
:100A70008091CB039091CC03019709F072C00E9442
:100A8000F2040E945B0200E010E067C08FE097E292
:100A90000197F1F700C00000C0E0D0E058C080919D
:100AA000D0039091D1030097D9F4EFE0F0E0EC1B74
:100AB000FD0BEE0FFF1FEE0FFF1FEE0FFF1FEE549B
:100AC000FE4FE00FF11F2081F801E295F295F07FD3
:100AD000FE27E07FFE27EA5BFC4FEC0FFD1F208323
:100AE0000197D9F4EFE0F0E0EC1BFD0BEE0FFF1FD8
:100AF000EE0FFF1FEE0FFF1FEE54FE4FE00FF11F32
:100B00008081F801E295F295F07FFE27E07FFE27D5
:100B1000EA5BFC4FEC0FFD1F8083F801E295F29534
:100B2000F07FFE27E07FFE27EA5BFC4FEC0FFD1F06
:100B300080810E942D03482F6C2F802F0E94DB02A2
:100B40008FE097E20197F1F700C000002196C031D5
:100B5000D1050CF4A4CF0F5F1F4F083011050CF422
:100B600095CF8091CB039091CC03029709F072C08E
:100B70000E94F2040E945B0200E010E067C08FE078
:100B800097E20197F1F700C00000C0E0D0E058C044
:100B90008091D0039091D1030097D9F4EFE0F0E079
:100BA000EC1BFD0BEE0FFF1FEE0FFF1FEE0FFF1FE5
:100BB000EE5CFE4FE00FF11F2081F801E295F29507
:100BC000F07FFE27E07FFE27EA5BFC4FEC0FFD1F66
:100BD00020830197D9F4EFE0F0E0EC1BFD0BEE0F62
:100BE000FF1FEE0FFF1FEE0FFF1FEE5CFE4FE00F2B
:100BF000F11F8081F801E295F295F07FFE27E07FFA
:100C0000FE27EA5BFC4FEC0FFD1F8083F801E295A5
:100C1000F295F07FFE27E07FFE27EA5BFC4FEC0FAA
:100C2000FD1F80810E942D03482F6C2F802F0E9472
:100C3000DB028FE097E20197F1F700C000002196F8
:100C4000C031D1050CF4A4CF0F5F1F4F0830110540
:100C50000CF495CFDF91CF911F910F910895809162
:100C6000CB039091CC03009729F49091380381E055
:100C700089278F5F0895809138030895CF92DF927E
:100C8000EF92FF920F931F93CF93DF9380913803DE
:100C9000811112C02091CD03022E000C330B309332
:100CA000D3032093D2032091D403022E000C330BE4
:100CB0003093450320934403813091F48091C6031F
:100CC000082E000C990B9093D3038093D20380914C
:100CD000D803082E000C990B90934503809344038E
:100CE000609144038091D2030E941B03D82E0E947E
:100CF0002D03C82E80ECC812FDC080ED0E942D038C
:100D0000E82E8D2D0E943704F82EE82A80EE0E94EE
:100D10002D03F82A00E010E0D8C0F801E295F29522
:100D2000F07FFE27E07FFE27EA5BFC4FEC0FFD1F04
:100D30008081F8125FC00E94D017709343036093C4
:100D400042030E94D0177093D7036093D60308C064
:100D50000E94D01770934303609342030E94F70CE4
:100D60002091D6033091D7032E5C3F4F80914203F0
:100D700090914303281739075CF74D2D6091440388
:100D80008091D2030E94DB021093D3030093D2031D
:100D9000D0934503C0934403E0913803F0E0EE0F95
:100DA000FF1FE050FF4F40816C2F802F0E94DB021D
:100DB0000E94D01770934303609342030E94D017A0
:100DC0007093D7036093D60308C00E94D017709326
:100DD0004303609342030E94F70C2091D6033091A5
:100DE000D70328583F4F809142039091430328171F
:100DF00039075CF7F801E295F295F07FFE27E07F76
:100E0000FE27EA5BFC4FEC0FFD1F8081E81253C008
:100E10000E94D01770934303609342030E94D0173F
:100E20007093D7036093D60308C00E94D0177093C5
:100E30004303609342030E94F70C8091D603909184
:100E4000D703C29620914203309143038217930740
:100E500064F74D2D609144038091D2030E94DB0220
:100E60001093D3030093D203D0934503C09344035C
:100E7000E0913803F0E0EE0FFF1FE050FF4F40819C
:100E80006C2F802F0E94DB0280913803811108C0F3
:100E90009091D2039093CD03909144039093D40307
:100EA000813089F48091D2038093C60380914403FA
:100EB0008093D80308C0219602C0C0E0D0E0C031C2
:100EC000D1050CF42ACF0F5F1F4F08301105ACF38A
:100ED0008091CE039091CF03019761F48091C70375
:100EE0009091C803019731F49091380381E08927EC
:100EF0008093380380E8C81224C180E90E942D0342
:100F0000E82E8D2D0E943704F82EE82A80EA0E94F0
:100F10002D03F82A00E010E0FFC0F801E295F295F9
:100F2000F07FFE27E07FFE27EA5BFC4FEC0FFD1F02
:100F30008081F81277C08091400390914103892B02
:100F400031F483EC99E090938900809388000E94AB
:100F5000D01770934303609342030E94D01770939D
:100F6000D7036093D60308C00E94D0177093430341
:100F7000609342030E94F70C2091D6033091D7036F
:100F80002E5C3F4F8091420390914303281739070D
:100F90005CF78091400390914103892B31F487E203
:100FA00093E290938900809388004D2D60914403D3
:100FB0008091D2030E94DB021093D3030093D203EB
:100FC000D0934503C0934403E0913803F0E0EE0F63
:100FD000FF1FE050FF4F40816C2F802F0E94DB02EB
:100FE0000E94D01770934303609342030E94D0176E
:100FF0007093D7036093D60308C00E94D0177093F4
:101000004303609342030E94F70C2091D603309172
:10101000D70328583F4F4091420350914303241770
:1010200035075CF7F801E295F295F07FFE27E07F47
:10103000FE27EA5BFC4FEC0FFD1F8081E81263C0C6
:101040008091400390914103892B31F48FEA92E221
:1010500090938900809388000E94D0177093430377
:10106000609342030E94D0177093D7036093D60316
:1010700008C00E94D01770934303609342030E94FC
:10108000F70C8091D6039091D703C296209142032A
:10109000309143038217930764F74D2D6091440309
:1010A0008091D2030E94DB021093D3030093D203FA
:1010B000D0934503C0934403E0913803F0E0EE0F72
:1010C000FF1FE050FF4F40816C2F802F0E94DB02FA
:1010D00080913803811108C09091D2039093CD0381
:1010E000909144039093D403813041F48091D203D2
:1010F0008093C603809144038093D80310928900A3
:101100001092880007C0219702C0C0E1D0E0DD2323
:101110000CF003CF0F5F1F4F08301105B4F380911F
:10112000CE039091CF03019761F48091C703909112
:10113000C803019731F49091380381E089278093A7
:101140003803DF91CF911F910F91FF90EF90DF90C7
:10115000CF900895FF920F931F93CF93DF93182F93
:1011600080913803811112C02091CD03022E000C12
:10117000330B3093D3032093D2032091D403022E58
:10118000000C330B3093450320934403813091F4DA
:101190008091C603082E000C990B9093D303809383
:1011A000D2038091D803082E000C990B909345032D
:1011B00080934403C0E0D0E0DAC0F0904403009193
:1011C000D2036F2D802F0E941B03482F6F2D802F7D
:1011D0000E94DB022091440330914503C9018170D4
:1011E000992720FD06C041E050E05093CA03409388
:1011F000C903892B31F08FEF9FEF9093CA0380933F
:10120000C9034091D2035091D3038091C9039091B7
:10121000CA03840F951F9093D3038093D203883021
:1012200091055CF02F5F3F4F3093450320934403BB
:1012300001979093D3038093D2038091D20390912E
:10124000D3039923ECF420914403309145032F5F9D
:101250003F4F3093450320934403203131055CF028
:101260001092D3031092D2038FE090E09093450345
:101270008093440305C001969093D3038093D203D7
:101280008091400390914103892B31F48FE39CE9D5
:1012900090938900809388000E94D0177093430335
:1012A000609342030E94D0177093D7036093D603D4
:1012B00008C00E94D01770934303609342030E94BA
:1012C000F70C8091D6039091D70388962091420322
:1012D000309143038217930764F7E0913803F0E0FD
:1012E000EE0FFF1FE050FF4F40816091440380915B
:1012F000D2030E94DB020E94D017709343036093D5
:1013000042030E94D0177093D7036093D60308C09E
:101310000E94D01770934303609342030E94F70C1E
:101320008091D6039091D7034E962091420330913D
:1013300043038217930764F7109289001092880084
:1013400080913803811108C09091D2039093CD030E
:10135000909144039093D403813041F48091D2035F
:101360008093C603809144038093D8032196812FF4
:1013700090E0C817D9070CF420CF0E943E060E94C7
:10138000A4048091CE039091CF03019731F4909102
:10139000380381E0892780933803DF91CF911F9133
:1013A0000F91FF9008950F931F93CF93DF93082F12
:1013B000162F80913803811112C02091CD03022E87
:1013C000000C330B3093D3032093D2032091D4032A
:1013D000022E000C330B30934503209344038130DD
:1013E00091F48091C603082E000C990B9093D303BF
:1013F0008093D2038091D803082E000C990B909310
:10140000450380934403D0914403C091D2036D2FD0
:101410008C2F0E941B03482F6D2F8C2F0E94DB0204
:101420002091D2033091D303200F311D07FD3A954F
:101430003093D3032093D2038091440390914503CA
:10144000810F911D17FD9A95909345038093440356
:10145000AC014170552780FD06C061E070E07093DB
:10146000CA036093C903452B31F04FEF5FEF5093F0
:10147000CA034093C903019631F48FE090E0909342
:101480004503809344038091440390914503409722
:1014900021F410924503109244032F3F3F4F31F443
:1014A00087E090E09093D3038093D2038091D2039E
:1014B0009091D303089721F41092D3031092D20392
:1014C000E0913803F0E0EE0FFF1FE050FF4F408146
:1014D000609144038091D2030E94DB028091380323
:1014E000811108C09091D2039093CD039091440351
:1014F0009093D403813041F48091D2038093C6034A
:10150000809144038093D8038091400390914103DC
:10151000892B31F48FE39CE99093890080938800B4
:101520000E94D01770934303609342030E94D01728
:101530007093D7036093D60308C00E94D0177093AE
:101540004303609342030E94F70C8091D60390916D
:10155000D7038A5B9F4F2091420330914303821748
:1015600093075CF70E943E06109289001092880053
:101570000E94A4048091CE039091CF03019761F45F
:101580008091C7039091C803892B31F4909138035F
:1015900081E0892780933803DF91CF911F910F91CC
:1015A000089580E80E946C1708951F93CF93DF93EE
:1015B0008031B0F46830A0F4142FC62FD82F81E00A
:1015C0000E9498176C2F677080E1689F900111242A
:1015D0008D2F8F70822B0E949817812F0E94981751
:1015E000DF91CF911F9108950F931F93CF93803177
:1015F000A0F48B01C82F83E00E9498178C2F8F7066
:101600000E949817C0E007C0F801EC0FF11D80811F
:101610000E949817CF5FC830B8F3CF911F910F91F8
:1016200008958FE00E94981708950E94D10A0E94A1
:10163000DD0140E060E07BE480E090E00E94841601
:101640000E94B81778940895CF93109202041092D4
:1016500001040E9424050E94AF176AE070E08AE04E
:1016600090E00E949E178AE593E09F938F930E94DB
:10167000B5196CE070E08AE090E00E949E178EE25F
:1016800093E09F938F930E94B5196EE070E08AE01B
:1016900090E00E949E178CE193E09F938F930E94AD
:1016A000B51960E170E08AE090E00E949E1781E148
:1016B00093E09F938F930E94B51968E070E08AE0F1
:1016C00090E00E949E1788E093E09F938F930E9482
:1016D000B5190E9497028DB79EB70A960FB6F89477
:1016E0009EBF0FBE8DBF0E94CB16882341F0809114
:1016F0003405909135050E947719C82F01C0CFEFAE
:10170000C23321F581E090E090930A0480930904AC
:101710000E940F0360E170E08AE090E00E949E1753
:101720008DEF92E09F938F930E94B51962E170E074
:101730008AE090E00E949E178FED92E09F938F9336
:101740000E94B5190F900F900F900F90C13311F5B3
:1017500010920A04109209040E94160360E170E0DE
:101760008AE090E00E949E1784ED92E09F938F9311
:101770000E94B51962E170E08AE090E00E949E1735
:1017800086EB92E09F938F930E94B5190F900F9074
:101790000F900F90C33709F4EAC0C33509F4E7C0CE
:1017A000C53611F0C534C1F48091090490910A0442
:1017B000019791F462E170E08AE090E00E949E1748
:1017C00088E992E09F938F930E94B5191092E403E9
:1017D0001092E3030F900F90CD3611F0CD3451F5F8
:1017E0008091090490910A04019721F562E170E06B
:1017F0008AE090E00E949E178AE792E09F938F9381
:101800000E94B5198AE590E090931C0480931B0414
:101810008AE090E090930C0480930B049093FC0377
:101820008093FB0381E090E09093E4038093E303D3
:101830000F900F90C83611F0C83451F5809109040B
:1018400090910A04019721F562E170E08AE090E04E
:101850000E949E178CE592E09F938F930E94B5198A
:101860008DE290E090931C0480931B048AE090E04A
:1018700090930C0480930B049093FC038093FB03E0
:1018800081E090E09093E4038093E3030F900F9046
:10189000C23611F0C23481F58091F3039091F403C4
:1018A00021E082279093F4038093F3036EE070E0CD
:1018B0008AE090E00E949E178091F3039091F403D8
:1018C000892B41F48AE492E09F938F930E94B5198B
:1018D0000F900F908091F3039091F403019741F4DE
:1018E00088E392E09F938F930E94B5190F900F9019
:1018F0008091F3030E942F03C13711F0C13591F598
:10190000809101049091020421E0822790930204C7
:1019100080930104019781F468E070E08AE090E030
:101920000E949E178EE292E09F938F930E94B519BA
:101930000E9419050F900F9080910104909102046C
:10194000892B81F468E070E08AE090E00E949E17A5
:1019500085E292E09F938F930E94B5190E9424051F
:101960000F900F900E94ED018F3F09F4BCCECF91F4
:1019700008950E94AF170E94A0038FEF87B98AB124
:1019800084608AB98FE388B91092FA031092F90340
:101990001092F6031092F503109218041092170497
:1019A0001092EA031092E9031092F8031092F703E1
:1019B00010920204109201041092DB031092DC03D7
:1019C0001092DD031092DE0384EF91E09093E20326
:1019D0008093E103909308048093070490931F047D
:1019E00080931E040E94ED010E94D21608958091FA
:1019F0003A03811115C08091170490911804892B26
:101A000079F48FE388B98FE097E20197F1F700C08E
:101A1000000090913A0381E0892780933A0308956A
:101A200080913A0381111EC0E0910D04F0910E04E3
:101A3000EC5FFE4F808188B980913A0320E8829F55
:101A4000C001112498B1892B88B98FE097E20197E2
:101A5000F1F700C0000090913A0381E0892780935C
:101A60003A03089580913A03813021F58091F7037C
:101A70009091F803892BF1F4E091F503F091F603CE
:101A8000E65FFE4F808188B980913A0320E8829F0B
:101A9000C001112498B1892B88B98FE097E2019792
:101AA000F1F700C0000090913A0381E0892780930C
:101AB0003A03089580913A03813019F58091F70334
:101AC0009091F8030197E9F4E091F903F091FA039A
:101AD000E65FFE4F808188B980913A0320E8829FBB
:101AE000C001112498B1892B88B98FE097E2019742
:101AF000F1F700C0000090913A0381E089278093BC
:101B00003A0308950F931F93CF93DF930E94D0174A
:101B1000EB010E94D0178B0105C00E94D017EB018A
:101B20000E94F70CC8018A569F4F8C179D07ACF78F
:101B3000DF91CF911F910F910895CF9361E170E0F4
:101B40008AE090E00E949E170E942F06813049F49F
:101B50008CEB90E09F938F930E94B5190F900F909C
:101B60000CC00E942F06823041F48AE990E09F93D6
:101B70008F930E94B5190F900F9062E170E08AE098
:101B800090E00E949E178CE790E09F938F930E94B5
:101B9000B51918B80F900F9031C00E9434050E94FB
:101BA000CB16882341F080913405909135050E9431
:101BB0007719C82F01C0CFEFC13711F0C135B1F48B
:101BC000809101049091020421E082279093020405
:101BD00080930104019711F40E941905809101047A
:101BE00090910204892B11F40E942405C33711F04F
:101BF000C33521F40E9416030E94FC150E94ED01DA
:101C00008F3F59F20E9416030E94FC15CF91089550
:101C1000CF92DF92EF92FF921F93CF93DF930E94B8
:101C2000D01760930F047093100480931104909365
:101C300012040E94D01760930304709304048093ED
:101C40000504909306040E94D0176093FD037093DF
:101C5000FE038093FF039093000480911B049091F6
:101C60001C049093E0038093DF0390931604809309
:101C70001504B5C780913903811106C0ECE7F0E087
:101C800080818E7F808305C0ECE7F0E080818160F9
:101C90008083EAE7F0E080818064808380917A002D
:101CA00086FDFCCF209178003091790030931F049D
:101CB00020931E0490913903911104C03093E203E4
:101CC0002093E103913021F430930804209307041A
:101CD00081E08927809339038091E1039091E203A9
:101CE00084389340FCF08091070490910804853A71
:101CF00021E09207BCF088359240A4F484EF91E093
:101D00009093E2038093E103909308048093070487
:101D10000E94290561E080E00E94D3090E94820DA3
:101D20000E9429058091E1039091E2038536910597
:101D3000FCF48091070490910804853A21E0920711
:101D4000BCF088359240A4F484EF91E09093E203D4
:101D50008093E10390930804809307040E9429056F
:101D60006FEF80E00E94D3090E94820D0E94290536
:101D7000809107049091080484389340FCF080918E
:101D8000E1039091E203853A21E09207BCF08835A7
:101D90009240A4F484EF91E09093E2038093E103F6
:101DA00090930804809307040E94290560E08FEF58
:101DB0000E94D3090E94820D0E9429058091070488
:101DC0009091080485369105FCF48091E10390918F
:101DD000E203853A21E09207BCF088359240A4F4F2
:101DE00084EF91E09093E2038093E10390930804E1
:101DF000809307040E94290560E081E00E94D309D6
:101E00000E94820D0E9429058091E1039091E203D6
:101E100081349340DCF080910704909108048E3B5C
:101E20009105A4F484EF91E09093E2038093E103A1
:101E300090930804809307040E94290561E081E0E3
:101E40000E94D3090E94820D0E9429058091E1031E
:101E50009091E20381349340DCF0809107049091EB
:101E6000080485339340A4F084EF91E09093E2035B
:101E70008093E10390930804809307040E9429054E
:101E800061E08FEF0E94D3090E94820D0E94290514
:101E90008091E1039091E2038E3B9105DCF4809107
:101EA0000704909108048E3B9105A4F484EF91E01F
:101EB0009093E2038093E1039093080480930704D6
:101EC0000E9429056FEF81E00E94D3090E94820DD4
:101ED0000E9429058091E1039091E2038E3B9105D8
:101EE000DCF4809107049091080485339340A4F0BA
:101EF00084EF91E09093E2038093E10390930804D0
:101F0000809307040E9429056FEF8FEF0E94D30989
:101F10000E94820D0E9429058AB180618AB90E94BF
:101F2000ED0180931D0481115EC081E00E94AA082A
:101F30000E94D017609303047093040480930504F7
:101F4000909306048091090490910A04019709F086
:101F500040C08091F7039091F803892BE9F48091B8
:101F6000F5039091F60301969093F6038093F503A1
:101F70008FEF90E722E0815090402040E1F700C0D1
:101F800000008091F7039091F80321E0822790935D
:101F9000F8038093F70387C08091F9039091FA03C7
:101FA00001969093FA038093F9038FEF90E722E074
:101FB000815090402040E1F700C000008091F7037D
:101FC0009091F80321E082279093F8038093F70320
:101FD0006AC08091F5039091F60301969093F60301
:101FE0008093F50360C0813009F05DC082E00E94FB
:101FF000AA080E94D017609303047093040480938E
:102000000504909306048091090490910A040197B5
:1020100009F040C08091F7039091F803892BE9F40F
:102020008091F5039091F60301969093F6038093C7
:10203000F5038FEF90E722E0815090402040E1F7D8
:1020400000C000008091F7039091F80321E08227FF
:102050009093F8038093F70326C08091F903909141
:10206000FA0301969093FA038093F9038FEF90E7B8
:1020700022E0815090402040E1F700C000008091B4
:10208000F7039091F80321E082279093F80380935F
:10209000F70309C08091F5039091F60301969093A0
:1020A000F6038093F5030E94CB16882341F08091BC
:1020B0003405909135050E947719182F01C01FEF44
:1020C000113711F0113591F58091010490910204BE
:1020D00021E082279093020480930104019781F408
:1020E00068E070E08AE090E00E949E178BE192E049
:1020F0009F938F930E94B5190E9419050F900F901E
:102100008091010490910204892B81F40E9424059E
:1021100068E070E08AE090E00E949E1782E192E021
:102120009F938F930E94B5190F900F90103739F03D
:10213000103529F080911D04833009F0DCC00E9425
:10214000D0176093DB037093DC038093DD039093DF
:10215000DE03C6C00E94CB16882339F08091340577
:10216000909135050E94771901C08FEF803711F0EB
:102170008035F1F40E94D017C090DB03D090DC03CF
:10218000E090DD03F090DE03DC01CB018C199D09AA
:10219000AE09BF098093DB039093DC03A093DD03BA
:1021A000B093DE0381E090E09093DA038093D9034B
:1021B000C0911D04D0E00E94ED01082E000C990B87
:1021C000C817D90719F48FEF80931D0480913A0343
:1021D000811115C08091170490911804892B79F40E
:1021E0008FE388B98FE097E20197F1F700C0000014
:1021F00090913A0381E0892780933A0371C08091DE
:102200003A0381111EC0E0910D04F0910E04EC5FC1
:10221000FE4F808188B980913A0320E8829FC001F7
:10222000112498B1892B88B98FE097E20197F1F7D3
:1022300000C0000090913A0381E0892780933A031F
:102240004FC080913A03813021F58091F70390913E
:10225000F803892BF1F4E091F503F091F603E65FC2
:10226000FE4F808188B980913A0320E8829FC001A7
:10227000112498B1892B88B98FE097E20197F1F783
:1022800000C0000090913A0381E0892780933A03CF
:1022900027C080913A03813019F58091F70390911E
:1022A000F8030197E9F4E091F903F091FA03E65F8E
:1022B000FE4F808188B980913A0320E8829FC00157
:1022C000112498B1892B88B98FE097E20197F1F733
:1022D00000C0000090913A0381E0892780933A037F
:1022E0008091D9039091DA03019709F033CF1092CE
:1022F000DA031092D903153611F0153431F58091B7
:10230000090490910A04019701F561E170E08AE007
:1023100090E00E949E1784EF91E09F938F930E941C
:10232000B51962E170E08AE090E00E949E1786EDA8
:1023300091E09F938F930E94B5191092E40310923D
:10234000E3030F900F900F900F901D3611F01D3486
:10235000D1F58091090490910A040197A1F562E1F9
:1023600070E08AE090E00E949E1788EB91E09F93D6
:102370008F930E94B5198AE590E090931C04809396
:102380001B049093E0038093DF03909316048093E3
:1023900015048AE090E090930C0480930B049093D2
:1023A000FC038093FB0310921A04109219041092FC
:1023B00014041092130481E090E09093E40380935E
:1023C000E3030F900F90183611F01834D1F5809177
:1023D000090490910A040197A1F562E170E08AE096
:1023E00090E00E949E178AE991E09F938F930E944C
:1023F000B5198DE290E090931C0480931B04909398
:10240000E0038093DF0390931604809315048AE021
:1024100090E090930C0480930B049093FC038093C2
:10242000FB0310921A0410921904109214041092D3
:10243000130481E090E09093E4038093E3030F9012
:102440000F90173711F0173571F461E080E00E94AA
:10245000D3090E94D01760930304709304048093FF
:10246000050490930604113611F0113471F460E004
:102470008FEF0E94D3090E94D017609303047093DA
:1024800004048093050490930604133711F0133568
:1024900071F46FEF80E00E94D3090E94D01760931F
:1024A0000304709304048093050490930604143687
:1024B00011F0143471F460E081E00E94D3090E94AD
:1024C000D0176093030470930404809305049093E1
:1024D0000604123739F0123529F080911D0482303C
:1024E00009F0BFC081E090E0909318048093170436
:1024F0008091E9039091EA03009779F589B18460AE
:1025000089B965E070E08AE090E00E949E1781E85A
:1025100091E09F938F930E94B51966E070E08AE086
:1025200090E00E949E1780910D0490910E040196F8
:102530009F938F9383E791E09F938F930E94B519A8
:1025400081E090E09093EA038093E9030F900F906D
:102550000F900F900F900F9084C0019709F081C0E9
:102560008091090490910A04019709F040C080917C
:10257000F7039091F803892BE9F48091F50390918A
:10258000F60301969093F6038093F5039FEF20E7FF
:1025900082E0915020408040E1F700C0000080912F
:1025A000F7039091F80321E082279093F80380933A
:1025B000F70326C08091F9039091FA030196909356
:1025C000FA038093F9038FEF90E722E08150904067
:1025D0002040E1F700C000008091F7039091F803DC
:1025E00021E082279093F8038093F70309C080913C
:1025F000F5039091F60301969093F6038093F5030B
:1026000089B1846089B965E070E08AE090E00E9459
:102610009E178AE591E09F938F930E94B51966E01B
:1026200070E08AE090E00E949E1780910D049091E6
:102630000E0401969F938F938CE491E09F938F9368
:102640000E94B51980910D048F5F0E94AA08109214
:10265000EA031092E9030F900F900F900F900F90E4
:102660000F900E94D0176093E5037093E603809368
:10267000E7039093E8030E94D0176093EB037093F5
:10268000EC038093ED039093EE030E94D0176093C8
:10269000EF037093F0038093F1039093F203809122
:1026A000DF039091E0030A970CF462C00E943B069E
:1026B00081115EC08091E3039091E403019709F0DA
:1026C00057C08091FD039091FE03A091FF03B0914C
:1026D00000048C509E4FAF4FBF4F4091EF0350917D
:1026E000F0036091F1037091F203481759076A07EC
:1026F0007B07F0F18091DF039091E00320911904B2
:1027000030911A04821B930B9093E0038093DF03B4
:1027100061E170E08AE090E00E949E178091E00302
:102720008F938091DF038F9382E391E09F938F9348
:102730000E94B5198091EF039091F003A091F103ED
:10274000B091F2038093FD039093FE03A093FF03E7
:10275000B09300048091190490911A0421E082271B
:1027600090931A04809319040F900F900F900F907C
:1027700080911504909116040A970CF463C00E948E
:102780003B06813009F05EC08091E3039091E40341
:10279000019709F057C08091FD039091FE03A0912D
:1027A000FF03B09100048C509E4FAF4FBF4F40913C
:1027B000EF035091F0036091F1037091F203481719
:1027C00059076A077B07F0F1809115049091160470
:1027D0002091130430911404821B930B90931604E0
:1027E0008093150461E170E08AE090E00E949E17FA
:1027F000809116048F93809115048F9388E191E066
:102800009F938F930E94B5198091EF039091F003ED
:10281000A091F103B091F2038093FD039093FE0326
:10282000A093FF03B09300048091130490911404CB
:1028300021E0822790931404809313040F900F904B
:102840000F900F908091DF039091E0030A970CF0B6
:1028500080C00E943B0681117CC08091E30390916F
:10286000E403019709F075C08091FD039091FE0388
:10287000A091FF03B09100048C599F4FAF4FBF4F01
:102880004091EF035091F0036091F1037091F203D6
:10289000481759076A077B0708F45BC060910B046F
:1028A00070910C04072E000C880B990B0E94AA183B
:1028B0002DEC3CEC4CEC5DE30E9405180E94721874
:1028C00070930C0460930B0461E170E08AE090E087
:1028D0000E949E1780910C048F9380910B048F931C
:1028E0008091E0038F938091DF038F938BEF90E0D3
:1028F0009F938F930E94B5198091EF039091F003FD
:10290000A091F103B091F2038093FD039093FE0335
:10291000A093FF03B093000480910B0490910C04EA
:102920000F900F900F900F900F900F90892B89F4BC
:102930008091DF039091E003009759F02AE030E0A6
:1029400030930C0420930B0401979093E003809341
:10295000DF0380911504909116040A970CF081C052
:102960000E943B06813009F07CC08091E303909186
:10297000E403019709F075C08091FD039091FE0377
:10298000A091FF03B09100048C599F4FAF4FBF4FF0
:102990004091EF035091F0036091F1037091F203C5
:1029A000481759076A077B0708F45BC06091FB036F
:1029B0007091FC03072E000C880B990B0E94AA183B
:1029C0002DEC3CEC4CEC5DE30E9405180E94721863
:1029D0007093FC036093FB0361E170E08AE090E098
:1029E0000E949E178091FC038F938091FB038F932D
:1029F000809116048F93809115048F938EED90E053
:102A00009F938F930E94B5198091EF039091F003EB
:102A1000A091F103B091F2038093FD039093FE0324
:102A2000A093FF03B09300048091FB039091FC03FB
:102A30000F900F900F900F900F900F90892B89F4AB
:102A40008091150490911604009759F02AE030E027
:102A50003093FC032093FB0301979093160480931B
:102A600015048091DF039091E0031816190634F0E5
:102A700080910B0490910C04892B69F080911504CE
:102A80009091160418161906A4F08091FB039091FA
:102A9000FC03892B71F48091E3039091E403019787
:102AA00041F48091090490910A04019711F40E9465
:102AB0009D0D4091030450910404609105047091B0
:102AC00006048091DB039091DC03A091DD03B091BB
:102AD000DE03840F951FA61FB71F8C509E4FAF4F6C
:102AE000BF4F4091E5035091E6036091E703709179
:102AF000E803481759076A077B0730F10E94390439
:102B00008091E5039091E603A091E703B091E8037B
:102B10008093030490930404A0930504B0930604E7
:102B20008091DB039091DC03A091DD03B091DE0383
:102B3000892B8A2B8B2B41F01092DB031092DC0344
:102B40001092DD031092DE0380910F049091100427
:102B5000A0911104B0911204CE96A11DB11D409117
:102B6000EB035091EC036091ED037091EE03481775
:102B700059076A077B07E8F08091E9039091EA031F
:102B80000197B9F480910D0490910E0401969093F1
:102B90000E0480930D04069721F410920E041092F7
:102BA0000D0440930F04509310046093110470932C
:102BB00012048091F5039091F6030A9721F4109284
:102BC000F6031092F5038091F9039091FA030A97A6
:102BD00021F41092FA031092F9030E94F70C0E945C
:102BE000A404882309F446C8DF91CF911F91FF9078
:102BF000EF90DF90CF9008958FEF90E090938B004F
:102C000080938A0083EA809380008AE18093810028
:102C10001092890010928800789480E480937C0060
:102C200086E880937A000E94150B0E94240B0E9474
:102C3000B90C0E94080E0E949D0DF9CFCF93C82FAA
:102C40008A3019F48DE00E941E169FB7907802C05A
:102C5000992329F1809121048F3FD1F3F894E091D9
:102C6000200481E08E0F80932004F0E0EE5DFB4FA6
:102C7000C083809121048F5F809321048091200480
:102C80008F3F11F410922004E1ECF0E0808180622B
:102C90008083992339F0789480E090E005C081E04A
:102CA00090E002C080E090E0CF91089580913305DC
:102CB0008823E1F32FB72078F89480912105309193
:102CC000330590E0831B91095AF4E091210580912E
:102CD0003305F0E0E81BF109EE5CFA4F80810AC091
:102CE000E091210580913305F0E0E81BF109EE5DEC
:102CF000FA4F8081909133059150909333052223B0
:102D000009F0789490E00895109220041092210424
:102D100010922105109233051092320540933B0327
:102D2000DC01CB01880F991FAA1FBB1F880F991FB9
:102D3000AA1FBB1F9C01AD01220F331F441F551F4B
:102D400060E072E18AE790E00E943619BA01A901B9
:102D50004F5F5F4F6F4F7F4FDB01CA011AF401963F
:102D6000A11DB11DB595A79597958795019790934E
:102D7000C5008093C400E1ECF0E088E180838081AD
:102D800080688083E4E3F5E084E191E093838283CB
:102D90009183808308959091330581E0911101C062
:102DA00080E00895109221051092330508951F9236
:102DB0000F920FB60F9211242F938F939F93EF933F
:102DC000FF9380912104882329F180912004209190
:102DD000210490E0821B91095AF4E0912004809133
:102DE0002104F0E0E81BF109EF5DFA4F90810AC081
:102DF000E091200480912104F0E0E81BF109EE5DF0
:102E0000FB4F908180912104815080932104909305
:102E1000C60005C0E1ECF0E080818F7D8083FF91EA
:102E2000EF919F918F912F910F900FBE0F901F9058
:102E300018951F920F920FB60F9211242F933F9364
:102E40004F935F936F937F938F939F93AF93BF93B2
:102E5000CF93EF93FF93C091C60080913B038823EB
:102E600049F0809121048F3F29F060E070E08C2FC1
:102E70000E941E1680913305803120F081E08093FE
:102E8000320518C0CD3009F4CAE0E091210581E097
:102E90008E0F80932105F0E0EE5DFA4FC0838091A4
:102EA00033058F5F8093330580912105803111F4C4
:102EB00010922105FF91EF91CF91BF91AF919F911A
:102EC0008F917F916F915F914F913F912F910F90D3
:102ED0000FBE0F901F90189594B1906B94B995B157
:102EE000906195B990E59CBD883021F0803211F059
:102EF000823019F491E09DBD01C01DBC803269F0A3
:102F000028F4883071F0803161F00EC0803429F0EF
:102F1000803851F48CB581608CBD8CB582608CBDDD
:102F200003C08CB581608CBD85B18F7E85B9089555
:102F30008EBD0DB407FEFDCF8EB508959F938F9380
:102F40007F936F9382E793E09F938F930E94B519CD
:102F50000F900F900F900F900F900F9008958DE6A7
:102F600093E09F938F930E94B5190F900F9008954F
:102F700010923C0310923D0310923E0310923F03C7
:102F800016BC8CE787BD82E084BD83E085BDEEE69C
:102F9000F0E080818260808385B3827085BB089574
:102FA0008FB7282F2078F89460913C0370913D03EF
:102FB00080913E0390913F03222309F07894089575
:102FC0001F920F920FB60F9211248F939F93AF937E
:102FD000BF9380913C0390913D03A0913E03B0913B
:102FE0003F030196A11DB11D80933C0390933D03C7
:102FF000A0933E03B0933F03BF91AF919F918F91F8
:103000000F900FBE0F901F9018955058BB27AA27FE
:103010000E941D180C94FC180E94EE1838F00E94B3
:10302000F51820F039F49F3F19F426F40C94EB18AE
:103030000EF4E095E7FB0C94E518E92F0E940D19BA
:1030400058F3BA17620773078407950720F079F4DD
:10305000A6F50C942F190EF4E0950B2EBA2FA02D87
:103060000B01B90190010C01CA01A0011124FF2735
:10307000591B99F0593F50F4503E68F11A16F04030
:10308000A22F232F342F4427585FF3CF469537952F
:103090002795A795F0405395C9F77EF41F16BA0BF4
:1030A000620B730B840BBAF09150A1F0FF0FBB1FA2
:1030B000661F771F881FC2F70EC0BA0F621F731FEB
:1030C000841F48F4879577956795B795F7959E3F48
:1030D00008F0B0CF9395880F08F09927EE0F9795D9
:1030E000879508950E9479186894B1110C9430194D
:1030F00008950E94151988F09F5798F0B92F9927C5
:10310000B751B0F0E1F0660F771F881F991F1AF0D2
:10311000BA95C9F714C0B13091F00E942F19B1E0EF
:1031200008950C942F19672F782F8827B85F39F0EE
:10313000B93FCCF3869577956795B395D9F73EF46B
:1031400090958095709561957F4F8F4F9F4F089513
:10315000E89409C097FB3EF4909580957095619531
:103160007F4F8F4F9F4F9923A9F0F92F96E9BB27E7
:103170009395F695879577956795B795F111F8CF63
:10318000FAF4BB0F11F460FF1BC06F5F7F4F8F4FCE
:103190009F4F16C0882311F096E911C0772321F0C4
:1031A0009EE8872F762F05C0662371F096E8862F5C
:1031B00070E060E02AF09A95660F771F881FDAF7B3
:1031C000880F9695879597F9089597F99F6780E8F6
:1031D00070E060E008959FEF80EC089500240A9469
:1031E0001616170618060906089500240A941216E2
:1031F0001306140605060895092E0394000C11F415
:10320000882352F0BB0F40F4BF2B11F460FF04C0C1
:103210006F5F7F4F8F4F9F4F089557FD9058440F1A
:10322000551F59F05F3F71F04795880F97FB991F25
:1032300061F09F3F79F087950895121613061406E2
:10324000551FF2CF4695F1DF08C01616170618066F
:10325000991FF1CF86957105610508940895E8944A
:10326000BB2766277727CB0197F90895052E97FB93
:103270001EF400940E944D1957FD07D00E94551965
:1032800007FC03D04EF40C944D19509540953095A1
:1032900021953F4F4F4F5F4F0895909580957095C2
:1032A00061957F4F8F4F9F4F0895A1E21A2EAA1B61
:1032B000BB1BFD010DC0AA1FBB1FEE1FFF1FA217E6
:1032C000B307E407F50720F0A21BB30BE40BF50BE3
:1032D000661F771F881F991F1A9469F7609570956C
:1032E000809590959B01AC01BD01CF010895CF93CE
:1032F000DF93EC012B8120FF33C026FF0AC02F7B18
:103300002B838E819F8101969F838E838A8190E09B
:1033100029C022FF0FC0E881F9818081082E000CAE
:10332000990B009719F420622B831AC03196F98308
:10333000E8830EC0EA85FB85099597FF09C02B81BC
:10334000019611F080E201C080E1822B8B8308C0DE
:103350002E813F812F5F3F4F3F832E83992702C0ED
:103360008FEF9FEFDF91CF910895A0E0B0E0EBEBFE
:10337000F9E10C947A1CAE01495F5F4FDA016D915F
:103380007D91AD0104E315E0F80182819381DC01B8
:1033900013962C911397286013962C930E94DB1997
:1033A000D8011296ED91FC9113972381277F2383F7
:1033B000E4E00C94961CABE0B0E0E1EEF9E10C9493
:1033C0006C1C6C017B018A01FC01178216828381CF
:1033D00081FFCCC1CE0101963C01F6019381F7013A
:1033E00093FD859193FF81917F01882309F4BAC1F0
:1033F000853239F493FD859193FF81917F01853268
:1034000029F4B60190E00E94D21BE7CF912C212C29
:10341000312CFFE1F315D8F08B3279F038F480329B
:1034200079F08332A1F4232D20611DC08D3261F02B
:10343000803369F4232D216016C0832D8260382EDD
:10344000E32DE4603E2E2AC0F32DF8601DC037FC4A
:103450002DC020ED280F2A3040F08E32B9F436FC12
:1034600081C1232D2064322E19C036FE06C08AE0A9
:10347000989E200D1124922E11C0EAE02E9E200D60
:103480001124222EF32DF0623F2E08C08C3621F439
:10349000832D8068382E02C0883641F4F70193FDF1
:1034A000859193FF81917F018111B3CF982F9F7DEB
:1034B0009554933028F40C5F1F4F9FE399830DC000
:1034C000833631F0833771F0833509F059C021C05C
:1034D000F801808189830E5F1F4F88248394912C8B
:1034E000530113C02801F2E04F0E511CF801A080D7
:1034F000B18036FE03C0692D70E002C06FEF7FEF30
:10350000C5010E94C71B4C018201F32DFF773F2E9E
:1035100016C0280122E0420E511CF801A080B180A3
:1035200036FE03C0692D70E002C06FEF7FEFC5016A
:103530000E94BC1B4C01F32DF0683F2E820133FC2E
:103540001BC0822D90E088169906B0F4B60180E287
:1035500090E00E94D21B2A94F4CFF50137FC8591AC
:1035600037FE81915F01B60190E00E94D21B2110CD
:103570002A9421E0821A91088114910471F7E8C01D
:10358000843611F0893641F5F80137FE07C06081B5
:103590007181828193810C5F1F4F08C060817181AE
:1035A000072E000C880B990B0E5F1F4FF32DFF7633
:1035B0003F2E97FF09C090958095709561957F4F3C
:1035C0008F4F9F4FF0683F2E2AE030E0A3010E940A
:1035D0000E1C882E861845C0853731F4232D2F7E8A
:1035E000B22E2AE030E025C0932D997FB92E8F3678
:1035F000C1F018F4883579F0B5C0803719F08837F4
:1036000021F0B0C0E92FE061BE2EB4FE0DC0FB2D4D
:10361000F460BF2E09C034FE0AC0292F2660B22EE6
:1036200006C028E030E005C020E130E002C020E123
:1036300032E0F801B7FE07C0608171818281938119
:103640000C5F1F4F06C06081718180E090E00E5FCB
:103650001F4FA3010E940E1C882E8618FB2DFF779A
:103660003F2E36FE0DC0232D2E7FA22E891458F436
:1036700034FE0BC032FC09C0832D8E7EA82E05C0FF
:10368000B82CA32C03C0B82C01C0B92CA4FE0FC0C9
:10369000FE01E80DF11D8081803321F49A2D997E81
:1036A000A92E09C0A2FE06C0B394B39404C08A2D0B
:1036B000867809F0B394A3FC11C0A0FE06C0B21432
:1036C00088F4280C922C9B180EC0B21460F4B6013A
:1036D00080E290E00E94D21BB394F7CFB21418F4AA
:1036E0002B1802C0982C212CA4FE10C0B60180E338
:1036F00090E00E94D21BA2FE17C0A1FC03C088E785
:1037000090E002C088E590E0B6010CC08A2D867872
:1037100059F0A1FE02C08BE201C080E2A7FC8DE25D
:10372000B60190E00E94D21B891438F4B60180E300
:1037300090E00E94D21B9A94F7CF8A94F301E80D8F
:10374000F11D8081B60190E00E94D21B8110F5CF5F
:10375000222009F442CEB60180E290E00E94D21B02
:103760002A94F6CFF6018681978102C08FEF9FEFF2
:103770002B96E2E10C94881CFC010590615070408E
:103780000110D8F7809590958E0F9F1F0895FC012A
:103790006150704001900110D8F7809590958E0F80
:1037A0009F1F08950F931F93CF93DF93FB012381F6
:1037B00021FD03C08FEF9FEF2CC022FF16C0468172
:1037C0005781248135814217530744F4A081B18188
:1037D0009D012F5F3F4F318320838C93268137815A
:1037E0002F5F3F4F3783268314C08B01EC01FB0111
:1037F0000084F185E02D0995892BE1F6D801169614
:103800008D919C911797019617969C938E9316977E
:10381000CE01DF91CF911F910F910895FA01AA2750
:10382000283051F1203181F1E8946F936E7F6E5F03
:103830007F4F8F4F9F4FAF4FB1E03ED0B4E03CD0B1
:10384000670F781F891F9A1FA11D680F791F8A1F94
:10385000911DA11D6A0F711D811D911DA11D20D0FB
:1038600009F468943F912AE0269F11243019305DB5
:103870003193DEF6CF010895462F4770405D4193A6
:10388000B3E00FD0C9F7F6CF462F4F70405D4A33F3
:1038900018F0495D31FD4052419302D0A9F7EACFBB
:1038A000B4E0A6959795879577956795BA95C9F7EA
:1038B00000976105710508959B01AC010A2E0694DD
:1038C0005795479537952795BA95C9F7620F731F96
:1038D000841F951FA01D08952F923F924F925F92D3
:1038E0006F927F928F929F92AF92BF92CF92DF9210
:1038F000EF92FF920F931F93CF93DF93CDB7DEB775
:10390000CA1BDB0B0FB6F894DEBF0FBECDBF099408
:103910002A88398848885F846E847D848C849B845F
:10392000AA84B984C884DF80EE80FD800C811B816D
:10393000AA81B981CE0FD11D0FB6F894DEBF0FBE9C
:0A394000CDBFED010895F894FFCF0C
:10394A0040005000065B4F666D7D3F065B4F666D1B
:10395A007D077F6F00000003000000001E16561648
:10396A00000075555D7C407C7D116D007C04047DF2
:10397A0045390000000000000000000000000000BF
:10398A00000000000000000000000000000000002D
:10399A0000000000505050505000005050505050FD
:1039AA00500000505000005050000000000000502D
:1039BA00500000000000505000000000005050006D
:1039CA0000000000505050505000005050505050CD
:1039DA00500000000000000000000000000000008D
:1039EA0000000000000000000000000000000000CD
:1039FA0000000000000000000000000000000000BD
:103A0A0000000000000000000000000000000000AC
:103A1A0000000000404040000000004040404000DC
:103A2A00000000404040400000000000004040000C
:103A3A00000000000040400000000000004040007C
:103A4A0000000040404040404000004040404040AC
:103A5A00400000000000000000000000000000001C
:103A6A00000000000000000000000000000000004C
:103A7A00000020000084000000D4000000A4000020
:103A8A00E400000000A400C400000000009400004C
:103A9A000000000000000000000083000000D300C6
:103AAA00000000A30000E300000000009300E30010
:103ABA00000000000000C300000000000000000039
:103ACA0000000000008200000000D20000A20000F6
:103ADA000000E20000920000D100C2008100000054
:103AEA00E100000000A10000C100100000009100E8
:103AFA000000200000000000000000840000D40044
:103B0A00000000A400E40000000000A4C4000000BB
:103B1A000000009400000000830000000000D300B1
:103B2A00A30082000000E300A30000A20000C3007B
:103B3A009300000092000000000000000000000056
:103B4A0000000000000000000000000000810000EA
:103B5A0000D100D200A10000E10000E200A100C1F2
:103B6A00000000C200A10000000010000091000047
:023B7A00000049
:04000005008004175C
:00000001FF
